:020000040800F2
:10000000180A0020290200083B1A0008BF1900083E
:10001000151A0008F9040008FD2B00080000000074
:10002000000000000000000000000000A126000801
:10003000450500080000000057250008C5270008F6
:100040004D0200084D0200084D0200084D02000854
:100050004D0200084D0200084D0200084705000847
:100060004D0200084D0200084D0200084D02000834
:100070004D0200084D0200084D0200084D02000824
:100080004D0200084D0200084D0200084D02000814
:100090004D0200084D0200084D0200084D02000804
:1000A0004D0200084D0200084D0200084D020008F4
:1000B0004D0200084D0200084D0200084D020008E4
:1000C0004D0200084D0200084D0200084D020008D4
:1000D0004D020008DD2B00084D020008ED2B000842
:1000E0004D0200084D0200084D0200084D020008B4
:1000F0004D0200084D0200084D0200084D020008A4
:100100004D0200084D0200084D0200084D02000893
:100110004D0200084D0200084D0200084D02000883
:100120004D0200084D0200084D0200084D02000873
:100130004D0200084D0200084D0200084D02000863
:100140004D0200084D0200084D0200084D02000853
:100150004D0200084D0200084D0200084D02000843
:100160004D0200084D0200084D0200084D02000833
:100170004D0200084D0200084D020008000000007A
:100180004D0200084D02000800F002F800F03CF8B3
:100190000AA090E8000C82448344AAF10107DA45E2
:1001A00001D100F031F8AFF2090EBAE80F0013F0F8
:1001B000010F18BFFB1A43F00103184790660000B7
:1001C000B0660000103A24BF78C878C1FAD8520748
:1001D00024BF30C830C144BF04680C6070470000C1
:1001E0000023002400250026103A28BF78C1FBD840
:1001F000520728BF30C148BF0B6070471FB504F0DD
:1002000036FC1FBD10B510BD00F0D7F81146FFF742
:10021000F5FF02F08BFE00F0F5F803B4FFF7F2FFF4
:1002200003BC02F0B1FD00000C48016841F470010C
:1002300001600B4880470B480047FEE7FEE7FEE7FA
:10024000FEE7FEE7FEE7FEE7FEE7FEE7FEE700006B
:1002500005480649044A064B7047000088ED00E057
:10026000CD2700088901000818060020180A002080
:1002700018060020704753EA020C00F069802DE94F
:10028000F04B4FF00006002B1FBFB3FA83F503FAC3
:1002900005F424FA05F65E4012BF1643B2FA82F561
:1002A00002FA05F4C5F120051EBF22FA05FC44EA56
:1002B0000C04203556EA044C4FEA144418BF641C61
:1002C0004FF000084FF00009904271EB030C39D356
:1002D000002919BFB1FA81F701FA07F6B0FA80F7E1
:1002E00000FA07F6C7F120071EBF20FA07FC46EA0E
:1002F0000C062037B6FBF4FCA7EB0507103F07F010
:100300001F0BCBF120060CFA0BFB2CFA06F644BFB0
:10031000B3460026202FA4BF5E464FF0000B5BEAD9
:10032000060C08BF4FF0010B19EB0B09ABFB027C6D
:1003300048EB0608C01B06FB02CC0BFB03CC71EBA1
:100340000C01C1E70B46024641464846BDE8F08B2A
:1003500013B54FF000004FF00001AFF30080BDE88F
:100360001C4070474FF0000200B513469446964675
:10037000203922BFA0E80C50A0E80C50B1F12001B8
:10038000BFF4F7AF090728BFA0E80C5048BF0CC066
:100390005DF804EB890028BF40F8042B08BF7047C4
:1003A00048BF20F8022B11F0804F18BF00F8012B36
:1003B00070477047704770477047754600F02CF8DB
:1003C000AE4605006946534620F00700854618B042
:1003D00020B5FFF73DFFBDE820404FF000064FF08D
:1003E00000074FF000084FF0000B21F00701AC466A
:1003F000ACE8C009ACE8C009ACE8C009ACE8C00989
:100400008D46704710B50446AFF300802046BDE826
:100410001040FFF702BF000000487047B4050020FD
:1004200010B502212F4800F0B7FB80B92E480078A4
:1004300068B900202D49087004212A4800F0ACFB5F
:10044000012801D12949087001202749087002219B
:10045000244800F0A1FB012842D12348007801285C
:100460003ED104211F4800F097FBB8B9204800781E
:10047000401E2049085C58B11D480078401E085CA9
:10048000401EC1B21A480078401E1A4A115405E0B5
:10049000002117480078401E164A115404211148C3
:1004A00000F07AFB012818D111480078401E11494C
:1004B000085C64280BDA0E480078401E085C401C7B
:1004C000C1B20B480078401E0A4A115405E064216D
:1004D00007480078401E074A11540020024908705E
:1004E00010BD00000018024023000020240000205E
:1004F00021000020AA01002000BFFEE708B50E4839
:10050000007850B100200C490870012008230BA28C
:1005100010210090302001F081FB0948007850B193
:100520000020074908700120082304A21821009028
:10053000382001F073FB08BD370000204F4646000D
:1005400038000020704710B5022000F015FA10BDE9
:1005500000B587B000BF00BF0020019015480068BB
:1005600040F04000134908600846006800F0400071
:10057000019000BF00BF00BF012004900E4803900F
:1005800002200590029002A90C4800F003FA002016
:1005900003900420029002A9084800F0FBF9002211
:1005A0000321072000F06DFB072000F05AFB07B085
:1005B00000BD000030380240000031100018024039
:1005C00000B587B000BF002001904948006840F0A6
:1005D0004000474908600846006800F0400001906C
:1005E00000BF00BF0820029011200390012004905A
:1005F0000220059002A93F4800F0CCF9102002909B
:1006000002A93C4800F0C6F90021AE2003F0FEF933
:100610000021084603F0FAF90021102003F0F6F952
:100620000021402003F0F2F90021812003F0EEF9CF
:100630000021CF2003F0EAF90021A12003F0E6F920
:100640000021C82003F0E2F90021A62003F0DEF922
:100650000021A82003F0DAF900213F2003F0D6F9A9
:100660000021D32003F0D2F90021084603F0CEF98F
:100670000021D52003F0CAF90021802003F0C6F93B
:100680000021D92003F0C2F90021F12003F0BEF9C6
:100690000021DA2003F0BAF90021122003F0B6F9A4
:1006A0000021DB2003F0B2F90021402003F0AEF975
:1006B0000021202003F0AAF90021022003F0A6F96E
:1006C00000218D2003F0A2F90021142003F09EF9EF
:1006D0000021A42003F09AF90021A62003F096F946
:1006E00003F00CF90021AF2003F090F907B000BD32
:1006F000303802400018024010B502212F4800F0A7
:100700004BFA80B92E48007868B900202D4908704E
:1007100004212A4800F040FA012801D12949087033
:100720000120274908700221244800F035FA0128E9
:1007300042D12348007801283ED104211F4800F00F
:100740002BFAB8B920480078401E2049085C58B1FF
:100750001D480078401E085C401EC1B21A4800784F
:10076000401E1A4A115405E0002117480078401E27
:10077000164A11540421114800F00EFA012818D12C
:1007800011480078401E1149085C64280BDA0E48B5
:100790000078401E085C401CC1B20B480078401E27
:1007A0000A4A115405E0642107480078401E074AB0
:1007B000115400200249087010BD000000180240CA
:1007C000230000202400002021000020A10100209F
:1007D00010B50221194800F0DFF980B918480078F7
:1007E00068B90020174908700421144800F0D4F9B2
:1007F000012801D113490870012011490870022114
:100800000E4800F0C9F9012816D10D4800780128DA
:1008100012D10421094800F0BFF910B900200A499B
:1008200008700421054800F0B7F9012801D10649F4
:10083000087000200249087010BD00000018024036
:1008400023000020240000203800002070B504465A
:10085000A56D00F0B5F9064694F83500022808D0D9
:100860008020606500BF002084F8340000BF0120B4
:1008700070BD2068006820F01600216808602068BC
:10088000406920F0800021684861206C08B9A06CA4
:1008900028B12068006820F00800216808602068FE
:1008A000006820F00100216808600FE000F088F97E
:1008B000801B05280AD92020606500BF002084F82D
:1008C000340000BF032084F83500D1E720680068B9
:1008D00000F001000028E9D194F85C103F20884026
:1008E000A86000BF002084F8340000BF012084F815
:1008F00035000020BCE7014691F83500022803D0FE
:100900008020486501207047052081F8350008687F
:10091000006820F001000A6810600020F3E7000082
:1009200010B50446022C23D11248007806281ED2A6
:10093000DFE800F00306090E131801F005FF16E0CA
:10094000FFF746FF13E0FFF7D9FD01F0ABFE0EE025
:10095000FFF7D4FD01F000FE09E0FFF7CFFDFFF740
:10096000CBFE04E0FFF7CAFDFFF75AFD00BF00BF52
:1009700010BD00003600002010B504460448006891
:10098000204020B1024804602046FFF7C9FF10BD97
:10099000143C0140F8B502460B4600250024002017
:1009A0000021DEE0012606FA01F51E6806EA0504CC
:1009B000AC4275D11E7906F00306012E04D01E79D3
:1009C00006F00306022E13D190684F000326BE40A6
:1009D000B0434F00DE68BE4030439060506801264F
:1009E0008E40B0431E79C6F300168E4030435060EF
:1009F0001E7906F00306032E09D0D0684F000326A7
:100A0000BE40B0434F009E68BE403043D0601E7968
:100A100006F00306022E13D1CF0802F1200656F885
:100A200027004E07F70E0F26BE40B0434F07FF0EBC
:100A30001E69BE403043CF0802F1200646F8270069
:100A400010684F000326BE40B0431E7906F003062F
:100A50004F00BE40304310605E6806F08056B6F12D
:100A6000805F7DD100BF00260096404E366846F478
:100A700080463E4F3E603E46366806F4804600960D
:100A800000BF00BF3A4E8F0856F827008E07370F79
:100A90000F26BE40B043374EB24202D1002624E0BA
:100AA0005EE0354EB24201D101261EE0334EB24225
:100AB00001D1022619E0324EB24201D1032614E0E0
:100AC000304EB24201D104260FE02F4EB24201D186
:100AD00005260AE02D4EB24201D1062605E02C4E35
:100AE000B24201D1072600E008268F073F0FBE4023
:100AF00030431F4E8F0846F82700264E3068A0432B
:100B00005E6806F48036B6F5803F00D12043214E62
:100B10003060361D3068A0435E6806F40036B6F5D6
:100B2000003F00D120431B4E361D3060361D30681B
:100B3000A0435E6806F48016B6F5801F00D12043FE
:100B4000144E08363060361D3068A0435E6806F4E7
:100B50000016B6F5001F00D120430E4E0C36306053
:100B6000491C1029FFF41EAFF8BD000044380240B4
:100B70000838014000000240000402400008024022
:100B8000000C024000100240001402400018024015
:100B9000001C0240003C0140024613690B400BB1AF
:100BA000012000E0002070470AB1816101E00B04E0
:100BB0008361704701480068000C7047002004E022
:100BC00001480068704700001800002003480068D2
:100BD000034909780844014908607047180000205B
:100BE0002000002010B50A48006840F40070084951
:100BF00008600846006840F480600860052000F046
:100C00007FF80F2000F006F800F02AF8002010BD51
:100C1000003C024070B504460E4800784FF47A71EB
:100C2000B1FBF0F00C490968B1FBF0F5284600F083
:100C300009FC08B1012070BD102C07D2002221460A
:100C4000501E00F01EF80548046001E00120F2E7A4
:100C50000020F0E720000020000000201C00002001
:100C6000704701460846002809DB00F01F030122F7
:100C70009A4043099B0003F1E023C3F8002100BF21
:100C800070472DE9F05F80460D461646002701F0BB
:100C9000D3FF074639462A46334601F00700C0F124
:100CA000070ABAF1040F02D94FF0040A01E0C0F1BB
:100CB000070AD14600F1040ABAF1070F02D24FF039
:100CC000000A01E0A0F1030AD4464FF0010A0AFA33
:100CD00009FAAAF1010A0AEA020A0AFA0CFA4FF022
:100CE000010B0BFA0CFBABF1010B0BEA030B4AEA0D
:100CF0000B042146404601F0A7FFBDE8F09F00002D
:100D000000BF00F00702064B19684FF6FF031940B9
:100D1000044B0B4343EA0221014B196000BF7047AB
:100D20000CED00E00000FA0570B504460D460CB964
:100D3000012070BD5848006800F00700A84209D2A1
:100D400055490D700846006800F00700A84201D020
:100D50000120EEE7207800F0020002281DD1207863
:100D600000F00400042805D14C48006840F4E0502D
:100D70004A490860207800F00800082805D1474853
:100D8000006840F46040454908604448006820F02D
:100D9000F000A168084341490860207800F0010094
:100DA000A8B36068012807D13C4808380068C0F340
:100DB0004040B8B90120BCE76068022802D06068F2
:100DC000032807D1354808380068C0F3406048B9A7
:100DD0000120AEE7314808380068C0F3400008B988
:100DE0000120A6E72D48006820F003006168084351
:100DF0002A490860FFF7E4FE064609E0FFF7E0FE37
:100E0000801B41F28831884202D9032091E707E034
:100E10002248006800F00C006168B0EB810FEDD152
:100E20001D48006800F00700A84209D91A490D7052
:100E30000846006800F00700A84201D0012078E7CA
:100E4000207800F00400042807D11448006820F43A
:100E5000E050E168084311490860207800F008007C
:100E6000082808D10D48006820F46040216940EA54
:100E7000C1000A49086000F03FF808490968C1F359
:100E80000311074A515CC8400649086006480068DB
:100E9000FFF7C0FE00204CE7003C0240083802404B
:100EA000824A0008000000201C0000200148006861
:100EB000704700000000002000B5FFF7F7FF04496D
:100EC0000968C1F38221034A515CC84000BD00009B
:100ED00008380240924A000800B5FFF7E7FF0449CE
:100EE0000968C1F34231034A515CC84000BD0000AB
:100EF00008380240924A00082DE9F04700240025F6
:100F00000026A1462548006800F00C0020B1042806
:100F100005D008283AD105E0DFF8849039E0DFF801
:100F2000849036E01D48001F006800F03F041B4815
:100F3000001F006800F4800078B11A481749091FA3
:100F40000968C1F38811A0FB017001462246002305
:100F50003846FFF790F905460EE011480F49091F82
:100F60000968C1F38811A0FB0170014622460023E5
:100F70003846FFF780F905460848001F0068C0F3AF
:100F80000140401C4600B5FBF6F902E0DFF8109086
:100F900000BF00BF4846BDE8F087000008380240A7
:100FA0000024F40000127A00F8B504460CB90120C0
:100FB000F8BD207800F00100002874D0F9480068DE
:100FC00000F00C0004280DD0F648006800F00C007A
:100FD000082813D1F348001F006800F48000B0F522
:100FE000800F0BD1EF4808380068C0F3404000285C
:100FF00059D06068002856D10120D9E700BF606849
:10100000B0F5803F08D1E7480838006840F48030E8
:10101000E449083908601EE06068B0F5A02F0DD1E2
:10102000E0480838006840F48020DE49083908604C
:101030000846006840F4803008600CE0D948083861
:10104000006820F48030D7490839086008460068F5
:1010500020F48020086000BF606890B1FFF7B0FD09
:10106000054606E0FFF7ACFD401B642801D90320CC
:101070009EE7CC4808380068C0F340400028F1D013
:1010800011E0FFF79DFD054606E0FFF799FD401BC7
:10109000642801D903208BE7C24808380068C0F3F0
:1010A00040400028F1D1207800F0020002285FD1F2
:1010B000BC48006800F00C0058B1BA48006800F065
:1010C0000C0008281CD1B748001F006800F48000FD
:1010D000B0B9B44808380068C0F3400020B1E068F7
:1010E000012801D0012063E7AE480838006820F0ED
:1010F000F800216940EAC100AA490839086037E0D0
:10110000E06800B30120A8490860FFF759FD0546D3
:1011100006E0FFF755FD401B022801D9032047E7F1
:10112000A04808380068C0F340000028F1D09D486E
:101130000838006820F0F800216940EAC1009949A8
:101140000839086014E0002097490860FFF738FD6F
:10115000054606E0FFF734FD401B022801D90320B5
:1011600026E7904808380068C0F340000028F1D115
:10117000207800F0080008282CD16069A8B101206F
:101180008A490860FFF71CFD054606E0FFF718FDD9
:10119000401B022801D903200AE782486C3000680E
:1011A000C0F340000028F1D014E000207F4908601F
:1011B000FFF706FD054606E0FFF702FD401B02288B
:1011C00001D90320F4E677486C300068C0F3400092
:1011D0000028F1D1207800F00400042870D1002705
:1011E00070483830006800F0805090B900BF00208F
:1011F00000906C483830006840F0805069493831C0
:1012000008600846006800F08050009000BF00BFF2
:1012100001276748006800F48070B0B9644800682E
:1012200040F4807062490860FFF7CAFC054606E09A
:10123000FFF7C6FC401B022801D90320B8E65C4832
:10124000006800F480700028F2D000BFA068012878
:1012500008D154486830006840F0010051496831B5
:1012600008601DE0A06805280DD14E486830006870
:1012700040F004004B49683108600846006840F0BF
:10128000010008600CE047486830006820F0010069
:101290004449683108600846006820F0040008608E
:1012A00000BFA068A8B1FFF78BFC054609E0FFF777
:1012B00087FC401B41F28831884202D9032077E63F
:1012C00026E0384868300068C0F340000028EED0BF
:1012D00013E0FFF775FC054608E0FFF771FC401BC3
:1012E00041F28831884201D9032061E62D486830F7
:1012F0000068C0F340000028EFD1012F07D1294832
:101300003830006820F0805026493831086000BF2E
:10131000A069002845D02348006800F00C00082888
:101320005DD0A069022845D100201F490866FFF75B
:1013300047FC054606E0FFF743FC401B022801D9A5
:10134000032035E6174808380068C0F340600028DD
:10135000F1D1D4E907010843616A40EA8111012211
:10136000A06AC2EB500041EA00412C20005D41EA36
:1013700000600C49091F086001200B490866FFF74F
:101380001FFC054606E0FFF71BFC401B022801D9A5
:1013900003200DE6034808380068C0F340600028C9
:1013A000F1D049E00838024000004742800E474231
:1013B00000700040002021490866FFF701FC054647
:1013C00006E0FFF7FDFB401B022801D90320EFE5F3
:1013D0001B480068C0F340600028F2D12CE0A069EF
:1013E000012800D1E4E51648001D0668A06901281F
:1013F00020D006F48001E06981421BD106F03F0154
:10140000206A814216D147F6C0703040616AB0EB65
:10141000811F0FD106F440310122A06AC2EB5000B7
:10142000B1EB004F06D106F070612C20005DB1EBEE
:10143000006F01D00120BBE50020B9E50000474264
:101440000038024070B504462546681EB0F1807F22
:1014500001D301200FE0681E4FF0E02148610F2109
:101460004FF0FF3001F0F0FB00204FF0E0218861E9
:1014700007200861002070BD704770472DE9F84FC4
:101480000446206805682068C668206847694FF0F0
:101490000009CA4605F00F09B9F1000F0AD105F09D
:1014A000200038B106F0200020B1204601F0CDF92F
:1014B000BDE8F88FB9F1000F72D007F0010018B93C
:1014C00006F4907000286BD005F0010030B106F4EE
:1014D000807018B1206C40F00100206405F0040019
:1014E00030B107F0010018B1206C40F00200206418
:1014F00005F0020030B107F0010018B1206C40F097
:101500000400206405F0080048B106F0200010B97E
:1015100007F0010018B1206C40F008002064206C36
:1015200070B305F0200028B106F0200010B120466D
:1015300001F08BF920684069C0F3801A206C00F03C
:10154000080010B9BAF1000F23D0204601F052F97B
:101550002068406900F04000402816D120684069AA
:1015600020F0400021684861A06B50B15648A16B43
:101570000865A06BFFF7BFF910B1A06B016D88473C
:101580000CE02046FFF779FF08E02046FFF775FFE3
:1015900004E02046FFF771FF0020206488E7FFE7A2
:1015A000206B012879D105F01000002875D006F0D5
:1015B0001000002871D000BF002000902068006853
:1015C000009020684068009000BF00BF206840691C
:1015D00000F04000402839D1A06B006840681FFA35
:1015E00080F8B8F1000F30D0A08D40452DDDA4F873
:1015F0002E80A06BC069B0F5807F1FD02068C068C6
:1016000020F480702168C8602068406920F00100E3
:10161000216848612068406920F0400021684861E5
:10162000202084F83E00002020632068C06820F05D
:1016300010002168C860A06BFFF708F9A08DE28D4B
:10164000801A81B22046FFF717FF31E7A08DE18DA8
:10165000401A1FFA80F8E08DE8B1B8F1000F1AD0F7
:101660002068C06820F490702168C86020684069D4
:1016700020F0010021684861202084F83E0000200D
:1016800020632068C06820F010002168C8604146CF
:101690002046FFF7F1FE0BE7FFE705F0800030B1D1
:1016A00006F0800018B1204601F067FA00E705F067
:1016B000400030B106F0400018B1204601F0B5F806
:1016C000F6E600BFF4E60000E127000810B5044686
:1016D0000CB9012010BDA06900B100E000BF94F872
:1016E0003D0028B9002084F83C00204600F028F88E
:1016F000242084F83D002068C06820F40050216850
:10170000C860204601F000F92068006920F490408C
:10171000216808612068406920F02A00216848613A
:101720002068C06840F400502168C8600020206430
:10173000202084F83D0084F83E000020CAE7000025
:1017400010B586B0044652492068884256D100BF81
:1017500000BF002000904F48006840F010004D4945
:1017600008600846006800F01000009000BF00BF4D
:1017700000BF00BF00BF002000904648143800683A
:1017800040F001004349143908600846006800F041
:101790000100009000BF00BF00BF00BF00BF0020DD
:1017A00000900846006840F00100086008460068A4
:1017B00000F00100009000BF00BF00BF481501907D
:1017C000022002900120039002200490072005903F
:1017D00001A93148FFF7DEF84FF48060019007203F
:1017E000059001A92C48FFF7D5F82520FFF739FA15
:1017F000022203212520FFF744FA46E0274920680A
:10180000884242D100BF002000902248001F00689B
:1018100040F480201F49091F08600846006800F452
:101820008020009000BF00BF00BF0020009019483A
:101830001438006840F0040016491439086008465E
:10184000006800F00400009000BF00BF0815019080
:1018500002200290012003900220049007200590AE
:1018600001A90F48FFF796F84FF400600190072098
:10187000059001A90A48FFF78DF82720FFF7F1F935
:10188000032211462720FFF7FCF906B010BD000027
:10189000001001404438024000000240004800406F
:1018A0000008024070B504460D46164694F83E0006
:1018B000202816D105B10EB9012070BD00BF94F8E3
:1018C0003C00012801D10220F7E7012084F83C0008
:1018D00000BF0020206332462946204601F02AF945
:1018E000EBE70220E9E7000010B504462D49206827
:1018F000884255D12C480078FF280ED12B4800781B
:1019000058B9294800782A49284A12788854274823
:101910000078401C254908703DE0244800780128E3
:101920000FD1214800780B280BDA1F480078204996
:101930001E4A127888541D480078401C1B490870C4
:1019400029E01A48007802280BD117480078184976
:10195000164A1278885415480078401C13490870BC
:1019600019E012480078032812D10F480078FE28A9
:101970000ED10D4801780E480C4A127881548078B7
:101980000B4949780B4A505400200849087002E07E
:10199000002006490870012203490748FFF782FF2B
:1019A00010BD00000048004012000020140000207C
:1019B0000E0000200401002054010020704700BFE9
:1019C000FEE710B5012000F033FE012000F042FEDA
:1019D00000F018F8002000F03DFE00F013F80020A1
:1019E00000F026FE00F00EF810BD10B5002000F04B
:1019F00031FE012000F01CFE00F004F8012000F090
:101A000029FE10BD032000BF011EA0F10102D0B2CB
:101A1000FAD1704700BFFEE710B5012000F01AFEB2
:101A2000FFF7F0FF012000F003FEFFF7EBFF0020BF
:101A300000F0FEFDFFF7E6FF10BD704710B502464F
:101A4000012000E050430B1EA1F10104E1B2F9D1E5
:101A500010BD00002DE9FE4F0746884692461C4601
:101A60000197CDF80080082C02D14FF006091FE045
:101A70002046E31704EB5373DB1021464FEAE47C66
:101A800004EB5C7C4FEAEC0CA4EBCC0CBCF1000F3B
:101A900002D04FF0010C01E04FF0000C63442246ED
:101AA00004EBD27C4FEA6C0C03FB0CF303F0FF0950
:101AB000AAF12000C6B200255EE0082C07D106EB93
:101AC00046002F4901EB400010F805B01DE00C2C3A
:101AD00007D106EB46002B4901EB800010F805B05A
:101AE00013E0102C05D1284800EB061010F805B0C3
:101AF0000BE0182C07D106EBC600244901EB80004F
:101B000010F805B001E0BDE8FE8F002002901CE057
:101B10000BF0010028B1414638460C9A01F006FF4F
:101B200009E00C9808B9012000E000200246414677
:101B3000384601F0FBFE4FEA6B0B08F1010000F0A4
:101B4000FF080298401CC0B2029002980828DFDB10
:101B5000781CC7B2082C0BD004EBD4714A10019941
:101B6000791A8A4204D1019F00980830C0B20090CF
:101B7000DDF80080681CC5B24D459EDB00BFC2E7A2
:101B80009A4A0008C24C000836510008265700083F
:101B90002DE9FF4F82B0064691461F46DDE90F4A08
:101BA0004FF0000B082C01D14FF0020B002530E064
:101BB000781B401EC1B20A20FFF740FFB9FBF0F0CE
:101BC0000A21B0FBF1F201FB1208B8F1000F0ED1AF
:101BD00004EBD4710BEB610101FB0561C8B2234634
:101BE0003022CDE900A40399FFF734FF0FE004EBA6
:101BF000D4710BEB610101FB0561C8B208F1300142
:101C0000CAB22346CDE900A40399FFF723FF681C5D
:101C1000C5B2BD42CCDB06B0BDE8F08F2DE9F8417E
:101C200006460F4614461D46DDF81C8013E0CDF82D
:101C3000008022782B4639463046FFF70BFF082DEF
:101C400002D1B01DC6B205E0284605EBD07106EB07
:101C50006101CEB2641C2078202802DB20787E2827
:101C6000E5DDBDE8F88110B5002000F041F8002066
:101C700000F050F800F067FC012000F039F800F0A7
:101C800062FC002000F034F810BD10B5012000F017
:101C900041F800F058FC012000F02AF800F053FC55
:101CA000002000F025F800F04EFC10BD70B5044691
:101CB00000F042F8802000F0C5F8FFF7E6FF20466C
:101CC00000F0C0F8FFF7E1FF00F04AF80A2001F049
:101CD0006DF800F031F8812000F0B4F8FFF7D5FF7F
:101CE000002000F087F8054600F03AF8284670BD5D
:101CF00010B504462CB9002220210548FEF754FFF8
:101D000004E0012220210248FEF74EFF10BD000032
:101D10000018024010B504462CB9002240210548A5
:101D2000FEF742FF04E0012240210248FEF73CFF9B
:101D300010BD00000018024010B50120FFF7D8FFC9
:101D40000120FFF7E7FF00F0FEFB0020FFF7E2FFB6
:101D500000F0F9FB0020FFF7CBFF00F0F4FB10BD13
:101D600010B50020FFF7D6FF0120FFF7C1FF00F0FC
:101D7000EAFB0120FFF7CEFF10BD000010B50024E4
:101D80000120FFF7C7FF022001F010F80120FFF744
:101D9000AFFF022001F00AF807E0601CC4B2FA2C81
:101DA00003DDFFF7DDFF012010BD40210448FEF7F1
:101DB000F3FE0028F1D1FFF79BFF0020F4E70000BD
:101DC0000018024070B505460C46FFF7B5FF8020AD
:101DD00000F038F8FFF759FF284600F033F8FFF716
:101DE00054FF204600F02EF8FFF74FFFFFF7B8FF33
:101DF00070BD000070B505460024002616E00020E6
:101E0000FFF776FF022000F0D1FF0120FFF770FFFF
:101E10006006040E40210A48FEF7BEFE08B1601CB1
:101E2000C4B2012000F0C2FF701CC6B2082EE6DB6F
:101E300015B9FFF72AFF01E0FFF715FF204670BD37
:101E40000018024070B50446002517E004F0800039
:101E500018B10120FFF75EFF02E00020FFF75AFFF4
:101E600000F071FB0120FFF743FF00F06CFB002046
:101E7000FFF73EFF6006040E681CC5B2082DE5DBC7
:101E800070BD000070B52DED088BB0EE409A9FED4F
:101E9000300BB0EE408AF0EE608A9FED2F0B53ECD2
:101EA000102B51EC180B02F06FF941EC180B19EEE6
:101EB000100A02F06BFD41EC1A0B53EC1A2B51EC9B
:101EC000180B02F061F941EC180B9FED250B53EC58
:101ED000102B51EC180B02F06FFC41EC180B9FED2E
:101EE000220B53EC102B51EC180B02F099F841EC3B
:101EF0001B0BB0EE4B0AF0EE6B0A00F0B9FEB0EE31
:101F000040AAF0EE60AA51EC1A0B02F095FAC6B2A4
:101F10000020FFF7CBFE044604F07F0040F01005E0
:101F200029460020FFF74EFF3146FE20FFF74AFF0B
:101F300021460020FFF746FF052000F02DFF44F06A
:101F4000A1010020FFF73EFFBDEC088B70BD000033
:101F50000000000084D77741000000000000B0407E
:101F6000000000000000F03F000000000000E03F23
:101F700070B506460C461546FFF7DEFE8020FFF7DB
:101F800061FFFFF7FBFEB100891DC8B2FFF75AFFE2
:101F9000FFF7F4FEE0B2FFF755FFFFF7EFFEC4F3E3
:101FA0000720FFF74FFFFFF7E9FEE8B2FFF74AFF10
:101FB000FFF7E4FEC5F30720FFF744FFFFF7DEFE5F
:101FC000FFF7CEFE70BD10B5002000F041F80020F4
:101FD00000F050F800F0B7FA012000F039F800F0F6
:101FE000B2FA002000F034F810BD10B5012000F066
:101FF00041F800F0A8FA012000F02AF800F0A3FA56
:10200000002000F025F800F09EFA10BD70B50446DF
:1020100000F042F8802000F0C7F8FFF7E6FF204606
:1020200000F0C2F8FFF7E1FF00F04AF80A2000F0E4
:10203000BDFE00F031F8812000F0B6F8FFF7D5FFC3
:10204000002000F087F8054600F03AF8284670BDF9
:1020500010B504462CB9002280210548FEF7A4FDE6
:1020600004E0012280210248FEF79EFD10BD000021
:102070000018024010B5044634B900224FF48071B4
:102080000448FEF791FD04E0012211020148FEF729
:102090008BFD10BD0018024010B50120FFF7D8FFDE
:1020A0000120FFF7E7FF00F04EFA0020FFF7E2FF04
:1020B00000F049FA0020FFF7CBFF00F044FA10BD12
:1020C00010B50020FFF7D6FF0120FFF7C1FF00F099
:1020D0003AFA0120FFF7CEFF10BD000010B5002432
:1020E0000120FFF7C7FF022000F060FE0120FFF78C
:1020F000AFFF022000F05AFE07E0601CC4B2FA2CC9
:1021000003DDFFF7DDFF012010BD4FF480710448AF
:10211000FEF742FD0028F0D1FFF79AFF0020F3E719
:102120000018024070B505460C46FFF7B5FF802049
:1021300000F03AF8FFF759FF284600F035F8FFF7AE
:1021400054FF204600F030F8FFF74FFFFFF7B8FFCD
:1021500070BD000070B505460024002617E0002081
:10216000FFF776FF022000F021FE0120FFF770FF4D
:102170006006040E4FF480710A48FEF70DFD08B1A9
:10218000601CC4B2012000F011FE701CC6B2082E03
:10219000E5DB15B9FFF729FF01E0FFF714FF204643
:1021A00070BD00000018024070B50446002517E01D
:1021B00004F0800018B10120FFF75CFF02E000206E
:1021C000FFF758FF00F0BFF90120FFF741FF00F0D3
:1021D000BAF90020FFF73CFF6006040E681CC5B288
:1021E000082DE5DB70BD000070B52DED088BB0EE5D
:1021F000409A19EE100A02F0C9FB41EC1B0B9FED4F
:10220000360B53EC102B02F097F941EC1A0B01F04E
:10221000D5FE09EE100A9FED320BB0EE408AF0EECB
:10222000608A9FED310B53EC102B51EC180B01F031
:10223000ABFF41EC180B19EE100A02F0A7FB41ECC2
:102240001A0B53EC1A2B51EC180B01F09DFF41ECCB
:10225000180B9FED270B53EC102B51EC180B02F0D1
:10226000ABFA41EC180B9FED240B53EC102B51EC07
:10227000180B01F0D5FE41EC1B0BB0EE4B0AF0EE53
:102280006B0A00F0F5FCB0EE40AAF0EE60AA51EC4B
:102290001A0B02F0D1F8C5B20020FFF7B7FE0446D2
:1022A00004F07F0040F0100631460020FFF73AFFAF
:1022B0002946FE20FFF736FF21460020FFF732FFB8
:1022C000052000F069FD44F0A1010020FFF72AFF7E
:1022D000BDEC088B70BD0000713D0AD7A370ED3FC7
:1022E0000000000084D77741000000000000B040EB
:1022F000000000000000F03F000000000000E03F90
:1023000070B506460C461546FFF7C6FE8020FFF75F
:102310004BFFFFF7E3FEB100891DC8B2FFF744FF92
:10232000FFF7DCFEE0B2FFF73FFFFFF7D7FEC4F395
:102330000720FFF739FFFFF7D1FEE8B2FFF734FFC0
:10234000FFF7CCFEC5F30720FFF72EFFFFF7C6FE11
:10235000FFF7B6FE70BD000000B587B000BF0020DB
:1023600001901748006840F0400015490860084691
:10237000006800F04000019000BF00BF20200290E4
:1023800011200390012004900220059002A90D481D
:10239000FEF700FB4020029002A90A48FEF7FAFA75
:1023A0008020029002A90748FEF7F4FA4FF48070EB
:1023B000029002A90348FEF7EDFA07B000BD000045
:1023C000303802400018024010B52DED028BB0EEFF
:1023D000408A0024FFF7C0FF00210846FFF7F2FC07
:1023E000B0EE480AFFF74EFD00210846FFF79AFEBF
:1023F000B0EE480AFFF7F8FE00BF2246002108466B
:10240000FFF7B6FD224600210120FFF7B1FD22466D
:1024100000210220FFF7ACFD224600210320FFF738
:10242000A7FD224600210420FFF7A2FD224600213D
:102430000520FFF79DFD224600210620FFF798FDAD
:10244000224600210720FFF793FD224600210820A5
:10245000FFF78EFD224600210920FFF789FD224665
:1024600000210A20FFF784FD224600210B20FFF700
:102470007FFD224600210C20FFF77AFD2246002135
:102480000D20FFF775FD224600210E20FFF770FD9D
:10249000224600210F20FFF76BFD2246002108464F
:1024A000FFF72EFF224600210120FFF729FF2246D9
:1024B00000210220FFF724FF224600210320FFF71E
:1024C0001FFF224600210420FFF71AFF22460021A9
:1024D0000520FFF715FF224600210620FFF710FF19
:1024E000224600210720FFF70BFF2246002108208B
:1024F000FFF706FF224600210920FFF701FF2246D1
:1025000000210A20FFF7FCFE224600210B20FFF7E6
:10251000F7FE224600210C20FFF7F2FE22460021A2
:102520000D20FFF7EDFE224600210E20FFF7E8FE0A
:10253000224600210F20FFF7E3FE642000F02CFC70
:10254000BDEC028B10BD032000BF011EA0F10102F3
:10255000D0B2FAD17047704710B502212F48FEF76C
:102560001BFB80B92E48007868B900202D490870FF
:1025700004212A48FEF710FB012801D129490870DF
:1025800001202749087002212448FEF705FB012895
:1025900042D12348007801283ED104211F48FEF78C
:1025A000FBFAB8B920480078401E2049085C58B1B1
:1025B0001D480078401E085C401EC1B21A480078D1
:1025C000401E1A4A115405E0002117480078401EA9
:1025D000164A115404211148FEF7DEFA012818D1D9
:1025E00011480078401E1149085C64280BDA0E4837
:1025F0000078401E085C401CC1B20B480078401EA9
:102600000A4A115405E0642107480078401E074A31
:10261000115400200249087010BD0000001802404B
:102620002300002024000020210000209801002029
:1026300010B504462CB9002208210548FEF7B4FA6B
:1026400004E0012208210248FEF7AEFA10BD0000A6
:102650000018024010B504462CB90022102105488C
:10266000FEF7A2FA04E0012210210248FEF79CFACC
:1026700010BD00000018024070B504460D46164615
:102680000F2C07DDA4F11001C8B232462946FFF72E
:1026900037FE04E0324629462046FFF769FC70BD4C
:1026A0007047000010B502212348FEF775FA80B983
:1026B0002248007868B900202149087004211E488A
:1026C000FEF76AFA012801D11D49087001201B4953
:1026D000087002211848FEF75FFA01282BD117482D
:1026E0000078012827D104211348FEF755FA60B974
:1026F00014480078012805D012480078401E11497E
:10270000087002E001200F49087004210A48FEF712
:1027100043FA01280CD10B4800780A2803DD092070
:102720000849087004E007480078401C0549087013
:1027300000200249087010BD00180240230000204C
:10274000240000202100002010B502211948FEF7C6
:1027500023FA80B91848007868B900201749087032
:1027600004211448FEF718FA012801D11349087012
:1027700001201149087002210E48FEF70DFA0128C8
:1027800016D10D480078012812D104210948FEF71E
:1027900003FA10B900200A49087004210548FEF721
:1027A000FBF9012801D10649087000200249087090
:1027B00010BD00000018024023000020240000206B
:1027C0003700002010B5FEF701FA10BD034800687D
:1027D00040F47000014908607047000088ED00E097
:1027E00070B50546AC6B0020E085E0842046FEF71E
:1027F00044FE70BD0168C96821F490710268D1601F
:102800000168496921F0010102685161016B0129E8
:1028100005D10168C96821F010010268D16020214A
:1028200080F83E1000210163704710B5044620680F
:10283000C06820F040002168C860202084F83D0076
:102840002046FFF7BBF8002010BD70B5044694F891
:102850003E00222856D1A068B0F5805F0CD12069D7
:1028600050B90025A66A20684068C0F3080030808F
:10287000A06A801CA06215E0A56A0026A068B0F5D9
:10288000805F03D0A06828B9206918B92068406823
:10289000287004E02068406800F07F002870A06A7B
:1028A000401CA062E08D401E80B2E08540BB2068E5
:1028B000C06820F020002168C8602068C06820F44B
:1028C00080702168C8602068406920F0010021689C
:1028D0004861202084F83E00206B01280AD120683E
:1028E000C06820F010002168C860A18D2046FEF766
:1028F000C3FD02E02046FEF7F7FF0020206370BD15
:102900000020FCE70220FAE72DE9F84F0446206892
:10291000006920F44050E16808432168086121699A
:10292000A068084361690843E16908430090206892
:10293000C06849F20C618843009908432168C86067
:102940002068406920F44070A1690843216848610B
:1029500076492068884203D075492068884203D1AF
:10296000FEF7BAFA814602E0FEF7A6FA8146E06970
:10297000B0F5004F6CD102206168A0FB0150034606
:102980001920A9FB007001462A463846FDF773FC62
:102990006421B0FBF1F04FEA001A02206168A0FB4D
:1029A00001510B461920A9FB00712A463846FDF754
:1029B00062FC834602206168A0FB01500346192097
:1029C000A9FB00712A463846FDF755FC6421B0FB8F
:1029D000F1F000EBC00101EB0010ABEB8000322105
:1029E00001EBC0006421B0FBF1F000F0F8000AEB4D
:1029F000400A02206168A0FB015003461920A9FB90
:102A0000007001462A463846FDF735FC8346022011
:102A10006168A0FB015003461920A9FB00712A46FA
:102A20003846FDF728FC6421B0FBF1F000EBC00153
:102A300001EB0010ABEB8000322101EBC000642100
:102A4000B0FBF1F000F007005044216888606AE0B4
:102A500004206168A0FB015003461920A9FB007007
:102A600001462A463846FDF706FC82460420616886
:102A7000A0FB015003461920A9FB007001462A461D
:102A80003846FDF7F8FB6421B0FBF1F000EBC00124
:102A900001EB0010AAEB8000322101EB0010642151
:102AA000B0FBF1F000F0F00A04206168A0FB0170B7
:102AB00003461920A9FB00513A462846FDF7DBFBE7
:102AC0006421B0FBF1F00AEB001A04206168A0FB5E
:102AD00001510B461920A9FB00712A463846FDF723
:102AE000CAFB834604206168A0FB015003461920FD
:102AF000A9FB007001462A463846FDF7BCFB64215D
:102B0000B0FBF1F000EBC00101EB0010ABEB80007B
:102B1000322101EB00106421B0FBF1F000F00F0056
:102B2000504421688860BDE8F88F00000010014023
:102B30000014014010B5034699629A85DA85002099
:102B40001864222083F83E0000BF002083F83C0078
:102B500000BF1868C06840F480701C68E0601868A6
:102B6000406940F001001C6860611868C06840F06E
:102B700020001C68E060002010BD014691F83D0077
:102B8000212828D18868B0F5805F0BD1086948B941
:102B90000A6A1088C0F308000B685860086A801C35
:102BA000086205E00B6A581C086218780B685860C8
:102BB000C88C401E80B2C88458B90868C06820F02C
:102BC00080000B68D8600868C06840F040000B685F
:102BD000D860002070470220FCE7000010B50248D2
:102BE000FEF74CFC10BD00001001002010B502489B
:102BF000FEF744FC10BD00005401002000BFFEE7BA
:102C000010B5044609480A49086008464460002196
:102C10008160C160016181610C214161FEF756FD57
:102C2000012204490248FEF73DFE10BD0048004065
:102C3000540100201200002002480068C0F3022066
:102C4000704700000CED00E010B5002804DB0A0717
:102C5000130E054A135406E00A07140E034A00F047
:102C60000F031B1FD45410BD00E400E018ED00E07A
:102C70002DE9F0412DED020B9FED3D0B2DED028B6B
:102C80009FED3D8BDDE90254C4F30A50A0F2FF36FC
:102C9000142E37DA002E18DA53EC102B9DED020BB0
:102CA00051EC100B01F0BCF953EC182B01F042FD74
:102CB00057D2002CA4BF0024254652DA24F000404D
:102CC000284318BF2E4C4CD01AE02E4820FA06F7A5
:102CD00004EA070028431FD053EC102B9DED020B94
:102CE00051EC100B01F09CF953EC182B01F022FD74
:102CF00037D2002C03DA4FF48010F0400444BC4378
:102D000000252EE0332E07DCA6F114004FF0FF3132
:102D100021FA00F73D4206D19DED020BBDEC028B7E
:102D200002B0BDE8F08153EC102B9DED020B51EC8D
:102D3000100B01F035FD53EC182B01F0FBFC10D209
:102D4000002C0DDA142E08BF641C09D0C6F1340023
:102D5000012101FA00F02844A84238BF641C05464E
:102D6000BD43CDE902549DED020BD7E70000000002
:102D70009C7500883CE4377E0000000000000000E5
:102D80000000F0BFFFFF0F0000BF7047014908605F
:102D9000704700000400002010B504464FF47A711B
:102DA00004FB01F000F002F810BD000070B503460E
:102DB00000224FF0E02675690D4E366803FB06F4DD
:102DC0004FF0E026B16910E04FF0E026B06988428C
:102DD0000BD0884202D20E1A324402E02E1A0E4460
:102DE00032440146A24200D300E0EDE700BF70BDCF
:102DF0000400002000B587B000BF00BF0020019094
:102E00000D48006840F040000B4908600846006823
:102E100000F04000019000BF00BF00BF0120029001
:102E200000200390012004900220059002A903488D
:102E3000FDF7B0FD07B000BD303802400018024079
:102E400070B50446002514B10120104908700F48E0
:102E5000007888B101210E48FDF79EFE60B90A2076
:102E6000FFF79AFF00200949087001210848FDF783
:102E700093FE48B9032507E001210548FDF78CFEC4
:102E8000012801D101490870284670BD25000020A5
:102E90000018024000B587B000BF00BF00200190BD
:102EA0002048006840F020001E490860084600687D
:102EB00000F02000019000BF00BF00BF00BF00BFB6
:102EC000002001900846006840F020000860084695
:102ED000006800F02000019000BF00BF00BF48154F
:102EE00002900120039004900220059002A90E4850
:102EF000FDF750FD4FF48060029002A90A48FDF7EB
:102F000049FD00BF012251020748FDF74DFE00BFF9
:102F100000BF012291020448FDF746FE00BF07B042
:102F200000BD00003038024000140240FDF75AFE98
:102F30000723022208214FF4A87000F0B5FFA82053
:102F4000FFF724FF4FF4E13001F01CF84FF4E130BB
:102F5000FFF756FEFFF79EFFFDF732FBFDF7F8FA8D
:102F6000FFF748FF9FED030AFFF72EFA00F004F881
:102F700000BFFEE700007A442DED048B82B00020F4
:102F8000F549087000260027012008232A22102175
:102F900000900020FEF75EFD01200823EFA2002133
:102FA00000903320FEF73AFE01200823EDA21946D7
:102FB00000900020FEF732FE012008210323642246
:102FC000CDE900101820FEF7E3FD01200823E7A259
:102FD000102100901846FEF721FE01200823E5A2EB
:102FE000102100903020FEF719FE01200823E2A2F4
:102FF000182100901846FEF711FE01200823DDA2DB
:10300000182100903820FEF709FE01200823DCA2D9
:10301000202100901846FEF701FE012008210346FA
:103020000246CDE9001020213020FEF7B1FD01203D
:103030000823D5A2282100901846FEF7EFFD0120B5
:10304000082103236422CDE9001028211020FEF777
:103050009FFD01200823CDA2282100903020FEF7FB
:10306000DDFD0120082103236422CDE90010282181
:103070003820FEF78DFD01200823C5A228210090ED
:103080005820FEF7CBFD0120082103236422CDE95F
:10309000001028216020FEF77BFD00F083FCFAE39E
:1030A0000025002042E0BB4A115CCA1701EB5272B6
:1030B00005EBE202D5B2B749097AB64A527A114411
:1030C000B44A927A1144B34A127A92FBF1F100EEBB
:1030D000101AB8EEC00AB04981ED000AAD49097A6C
:1030E000AC4A527A1144AB4A927A1144A94A527AB4
:1030F00092FBF1F100EE101AB8EEC00AA74981ED7B
:10310000000AA449097AA34A527A1144A14A927A40
:103110001144A04A927A92FBF1F100EE101AB8EE37
:10312000C00A9F4981ED000A411CC8B20828BADBD9
:1031300000F088FC04460120082102232246CDE944
:10314000001020213020FEF723FD01200821032359
:103150002A46CDE900101820FEF71AFD01200821AB
:10316000CDE900108F480078401E8F490A5C032388
:1031700028211020FEF70CFD01200821CDE90010C8
:1031800088480078401E89490A5C0323282138209A
:10319000FEF7FEFC01200821CDE9001081480078EF
:1031A000401E83490A5C032328216020FEF7F0FCBF
:1031B0000020FFF745FE0746032F04D1701CC6B25E
:1031C000062E00D100267B480078B04201D0794815
:1031D0000670062E48D2DFE806F003488DF5F3BEF0
:1031E0005D48007840B90120082362A210210090B8
:1031F0003020FEF713FD07E0012008236EA2102106
:1032000000903020FEF70AFD012008232A22102119
:1032100000900020FEF71EFC012008232022182128
:1032200000900020FEF716FC012008232022114602
:1032300000900020FEF70EFC012008232022282108
:1032400000900020FEF706FC012008232022282100
:1032500000900846FEF7FEFB0120082320222821CB
:1032600000905020FEF7F6FB3FE15448007840B94B
:10327000012008233FA2182100903820FEF7CEFC41
:1032800007E0012008234CA2182100903820FEF707
:10329000C5FC012008232022102100900020FEF709
:1032A000D9FB012008232A22182100900020FEF7D4
:1032B000D1FB012008232022114600900020FEF7B8
:1032C000C9FB012008232022282100900020FEF7BE
:1032D000C1FB012008232022282100900846FEF788
:1032E000B9FB012008232022282100905020FEF75E
:1032F000B1FBFAE0012008232022102100900020D9
:10330000FEF7A8FB012008232022182100900020AE
:10331000FEF7A0FB012008232A2220210090002094
:10332000FEF798FB0120082320222821009000208E
:10333000FEF790FB01200823202228210090084658
:10334000FEF788FB0120082320222821009050202E
:10335000FEF780FBC9E097E0370000204C696E67FC
:10336000740000004C756D3A000000004175746FE8
:103370003A0000004F46460047726179733A0000F8
:10338000536974653A0000005200000047000000D5
:103390004200000004010020280000202C00002032
:1033A000300000202100002098010020A101002011
:1033B000AA010020360000204F4E200038000020D7
:1033C00031E0FFE701200823202210210090002097
:1033D000FEF740FB01200823202218210090002046
:1033E000FEF738FB01200823202211460090002020
:1033F000FEF730FB012008232A222821009000201C
:10340000FEF728FB012008232022282100900846EF
:10341000FEF720FB012008232022282100905020C5
:10342000FEF718FB61E00120082320221021009004
:103430000020FEF70FFB0120082320221821009016
:103440000020FEF707FB01200823202211460090F0
:103450000020FEF7FFFA01200823202228210090F7
:103460000020FEF7F7FA012008232A2228210090E5
:103470000846FEF7EFFA01200823202228210090B9
:103480005020FEF7E7FA30E0012008232022102127
:1034900000900020FEF7DEFA0120082320221821E8
:1034A00000900020FEF7D6FA0120082320221146C2
:1034B00000900020FEF7CEFA0120082320222821C8
:1034C00000900020FEF7C6FA0120082320222821C0
:1034D00000900846FEF7BEFA012008232A22282180
:1034E00000905020FEF7B6FA00BF00BF00F05AFA75
:1034F000F548007800285FD1002400BF19E0F349A7
:10350000095D11FB01F000F0C4FF41EC190B9FEDC8
:10351000F00B53EC102B01F00FF841EC180B00F0FE
:103520008BFF8046424600212046FFF7A5F8601C2D
:10353000C4B2092CE3DB09241BE0A4F10901E64A2B
:10354000515C11FB01F000F0A4FF41EC190B9FED61
:10355000E00B53EC102B00F0EFFF41EC180B00F0E8
:103560006BFF8046424600212046FFF785F8601C2D
:10357000C4B2122CE1DB12241BE0A4F11201D74AE1
:10358000515C11FB01F000F084FF41EC190B9FED41
:10359000D00B53EC102B00F0CFFF41EC180B00F0D8
:1035A0004BFF8046424600212046FFF765F8601C2D
:1035B000C4B21B2CE1DB84E1C34800780128FAD1B6
:1035C000C7480078C0BB002400BF16E0C548D0ED56
:1035D000000A00EE105AB8EE400A20EE800AF3EE20
:1035E000000A20EE200ABCEEC00A10EE102A0021CC
:1035F0002046FFF741F8601CC4B2092CE6DB092421
:1036000016E0B948D0ED000A00EE105AB8EE400AB4
:1036100020EE800AF3EE000A20EE200ABCEEC00A7B
:1036200010EE102A00212046FFF726F8601CC4B2D5
:10363000122CE6DB122417E019E0AC48D0ED000AAA
:1036400000EE105AB8EE400A20EE800AF3EE000AAF
:1036500020EE200ABCEEC00A10EE102A00212046FF
:10366000FFF70AF8601CC4B21B2CE6DB29E19C487A
:10367000007801289FD100244FF000089C48007872
:10368000804609E09A49095C414503DD984911F8F3
:1036900000800446411CC8B20828F3DBB7EE000ADC
:1036A000904880ED000AB7EE000A8F4880ED000ACE
:1036B000B7EE000A8D4880ED000A082C23D2DFE81F
:1036C00004F004234261809FBEDDDFED8A5A9FED46
:1036D000895ADFED884A9FED874ADFED873A9FEDF3
:1036E000863ADFED842A9FED842AF7EE001A7F48A0
:1036F00090ED001A7C48D0ED000A7A4890ED000A5F
:10370000284600F0CCF9DAE0DFED7A5A9FED795ADD
:10371000DFED784A9FED784ADFED773A9FED763A14
:10372000DFED752AB7EE002ADFED731A6F4890EDD2
:10373000001A6D48D0ED000A6A4890ED000A28464C
:1037400000F0ADF9BBE0DFED6B5A9FED6A5ADFED9B
:10375000694A9FED694ADFED683A9FED663AF7EEF8
:10376000002A9FED652ADFED631A604890ED001A8C
:103770005D48D0ED000A5B4890ED000A284600F055
:103780008EF99CE0DFED5B5A9FED5B5ADFED5A4A04
:103790009FED584ADFED583AB7EE003ADFED552A73
:1037A0009FED552ADFED541A504890ED001A4E480F
:1037B000D0ED000A4B4890ED000A284600F06FF962
:1037C0007DE0DFED4D5A9FED4C5ADFED4A4AB7EEF2
:1037D000004ADFED493A9FED473ADFED472A9FED7A
:1037E000462ADFED441A414890ED001A3E48D0EDDC
:1037F000000A3C4890ED000A284600F050F95EE0CF
:10380000DFED3C5A9FED3C5AF7EE004A9FED394AF6
:10381000DFED393A9FED383ADFED362A9FED352A54
:10382000DFED341A314890ED001A2F48D0ED000A30
:103830002C4890ED000A284600F031F93FE0DFED1A
:103840002E5AB7EE005ADFED2C4A9FED2B4ADFEDE2
:103850002A3A9FED293ADFED272A9FED262ADFED50
:10386000251A224890ED001A1F48D0ED000A1D4885
:1038700090ED000A284600F012F920E0F7EE005A19
:103880009FED1D5ADFED1B4A9FED1B4ADFED1A3AF3
:103890009FED183A00E015E0DFED162A9FED152A9E
:1038A000DFED141A114890ED001A0F48D0ED000A10
:1038B0000C4890ED000A284600F0F1F800BF00BF68
:1038C00000BF00BFFFF7ECBB3700002098010020CD
:1038D0009A9999999999D93FA1010020AA010020AC
:1038E00038000020280000202C000020300000209C
:1038F00004010020CDCCCC3CCDCC4C3D70B5002497
:103900000CE0002506E00020074901EBC501085541
:10391000681CC5B2802DF6DB601CC4B2082CF0DB3D
:1039200000F040F870BD0000B3010020F0B514466F
:103930000B46CF1701EB5777C7F3C702CF1701EB41
:103940005777FF10A1EBC707FEB20123B340DDB2EA
:103950004CB1134B03EBC0039B5C2B43104F07EBA5
:10396000C007BB541AE00E4B03EBC0039B5CDB4368
:103970000B4F07EBC007BB54094B03EBC0039B5C29
:103980002B43074F07EBC007BB54054B03EBC003AA
:103990009B5CDB43024F07EBC007BB54F0BD00004C
:1039A000B301002070B500242BE004F1B001C8B2CF
:1039B000002100F02BF80021084600F027F8002134
:1039C000102000F023F8FDF7FCFF782000F048F805
:1039D000FEF722F8402000F043F8FEF71DF800251E
:1039E00009E0094901EBC501085D00F039F8FEF76F
:1039F00013F8681CC5B2802DF3DBFDF7F6FF601CE1
:103A0000C4B2082CD1DB70BDB301002070B50546EF
:103A10000C46FDF7D6FF782000F022F8FDF7FCFFFA
:103A20001CB1402000F01CF802E0002000F018F863
:103A3000FDF7F2FF284600F013F8FDF7EDFFFDF764
:103A4000D4FF70BD05480078092803DD092003492B
:103A50000870704701480078FBE700002100002053
:103A600070B50446002517E004F0800018B101206D
:103A7000FEF7F0FD02E00020FEF7ECFDFDF7C2FFCF
:103A80000120FEF7D5FDFDF7BDFF0020FEF7D0FDBC
:103A90006006040E681CC5B2082DE5DB70BD10B5CC
:103AA0002DED0C8B0446B0EE408AF0EE608AB0EE4D
:103AB000419AF0EE619AB0EE42AAF0EE62AAB0EE40
:103AC00043BAF0EE63BAB0EE44CAF0EE64CAB0EEA8
:103AD00045DAF0EE65DA04FB04F000EE100AB8EE09
:103AE000C00A20EE080A20EE290ABCEEC00A10EE39
:103AF000102A00210846FEF7BFFD04FB04F000EE8B
:103B0000100AB8EEC00A20EE280A20EE290ABCEE00
:103B1000C00A10EE102A00210920FEF7ADFD04FBBB
:103B200004F000EE100AB8EEC00A20EE090A20EEFA
:103B3000290ABCEEC00A10EE102A00211220FEF75E
:103B40009BFD04FB04F000EE100AB8EEC00A20EE64
:103B5000080A20EE0A0ABCEEC00A10EE102A002164
:103B60000120FEF789FD04FB04F000EE100AB8EE18
:103B7000C00A20EE280A20EE0A0ABCEEC00A10EEA7
:103B8000102A00210A20FEF777FD04FB04F000EE66
:103B9000100AB8EEC00A20EE090A20EE0A0ABCEEAE
:103BA000C00A10EE102A00211320FEF765FD04FB69
:103BB00004F000EE100AB8EEC00A20EE080A20EE6B
:103BC0002A0ABCEEC00A10EE102A00210220FEF7DD
:103BD00053FD04FB04F000EE100AB8EEC00A20EE1C
:103BE000280A20EE2A0ABCEEC00A10EE102A002194
:103BF0000B20FEF741FD04FB04F000EE100AB8EEC6
:103C0000C00A20EE090A20EE2A0ABCEEC00A10EE15
:103C1000102A00211420FEF72FFD04FB04F000EE13
:103C2000100AB8EEC00A20EE080A20EE0B0ABCEE1D
:103C3000C00A10EE102A00210320FEF71DFD04FB30
:103C400004F000EE100AB8EEC00A20EE280A20EEBA
:103C50000B0ABCEEC00A10EE102A00210C20FEF761
:103C60000BFD04FB04F000EE100AB8EEC00A20EED3
:103C7000090A20EE0B0ABCEEC00A10EE102A002141
:103C80001520FEF7F9FC04FB04F000EE100AB8EE74
:103C9000C00A20EE080A20EE2B0ABCEEC00A10EE85
:103CA000102A00210420FEF7E7FC04FB04F000EEDC
:103CB000100AB8EEC00A20EE280A20EE2B0ABCEE4D
:103CC000C00A10EE102A00210D20FEF7D5FC04FBDF
:103CD00004F000EE100AB8EEC00A20EE090A20EE49
:103CE0002B0ABCEEC00A10EE102A00211620FEF7A7
:103CF000C3FC04FB04F000EE100AB8EEC00A20EE8C
:103D0000080A20EE0C0ABCEEC00A10EE102A0021B0
:103D10000520FEF7B1FC04FB04F000EE100AB8EE3B
:103D2000C00A20EE280A20EE0C0ABCEEC00A10EEF3
:103D3000102A00210E20FEF79FFC04FB04F000EE89
:103D4000100AB8EEC00A20EE090A20EE0C0ABCEEFA
:103D5000C00A10EE102A00211720FEF78DFC04FB8C
:103D600004F000EE100AB8EEC00A20EE080A20EEB9
:103D70002C0ABCEEC00A10EE102A00210620FEF725
:103D80007BFC04FB04F000EE100AB8EEC00A20EE43
:103D9000280A20EE2C0ABCEEC00A10EE102A0021E0
:103DA0000F20FEF769FC04FB04F000EE100AB8EEE9
:103DB000C00A20EE090A20EE2C0ABCEEC00A10EE62
:103DC000102A00211820FEF757FC04FB04F000EE37
:103DD000100AB8EEC00A20EE080A20EE0D0ABCEE6A
:103DE000C00A10EE102A00210720FEF745FC04FB54
:103DF00004F000EE100AB8EEC00A20EE280A20EE09
:103E00000D0ABCEEC00A10EE102A00211020FEF7A9
:103E100033FC04FB04F000EE100AB8EEC00A20EEFA
:103E2000090A20EE0D0ABCEEC00A10EE102A00218D
:103E30001920FEF721FC04FB04F000EE100AB8EE96
:103E4000C00A20EE080A20EE2D0ABCEEC00A10EED1
:103E5000102A00210820FEF70FFC04FB04F000EEFE
:103E6000100AB8EEC00A20EE280A20EE2D0ABCEE99
:103E7000C00A10EE102A00211120FEF7FDFB04FB02
:103E800004F000EE100AB8EEC00A20EE090A20EE97
:103E90002D0ABCEEC00A10EE102A00211A20FEF7EF
:103EA000EBFBBDEC0C8B10BD2DE9F04192B08046D0
:103EB0000C4615461E460027302106A8FCF752FA8C
:103EC000142101A8FCF74EFA00BF002000902A48F8
:103ED000006840F08050284908600846006800F0FB
:103EE0008050009000BF00BF00BF0020009023481A
:103EF000006840F48040214908600846006800F4EA
:103F00008040009000BF00BF012006900004079091
:103F100002200C9041050D91CDF83C800E94109537
:103F2000119606A8FDF740F807461FB1012012B010
:103F3000BDE8F0810F200190022002900020039044
:103F40004FF4A05004904FF480500590052101A833
:103F5000FCF7EAFE07460FB10120E8E7FCF72AFE6E
:103F600041F20101884205D10548006840F48070A3
:103F7000034908600020DAE7403802400070004042
:103F8000003C024010B5044609480A49086008464A
:103F9000446000218160C160016181610C21416147
:103FA000FDF794FB012204490248FDF77BFC10BD9C
:103FB00000100140100100201200002021F00042FA
:103FC000A2F16052B2F5801F01F0004328BFD2F188
:103FD0007F6C0BD95FEA001C43EAC20242EB5070CF
:103FE00018BF704728BF20F001007047B2F5801F4E
:103FF000BCBF184670474FEA410C1CF5001F02D2A7
:10400000084600F039BD70B500F040FB00000089A3
:10401000FFF7F6BF4FF00040A0F5800070470000AA
:1040200010B591EA030F48BF83F0004300F1CC8341
:10403000841A71EB030C05D2121943EB0C03001B1D
:1040400061EB0C01DFF824E14FEA1154A4EB135C9F
:104050001EEA430F18BF9EEA445F73D023EA0E03A3
:10406000DCF1200E21EA045143F4801332D322FA0A
:104070000CFE10EB0E0023FA0CFE41EB0E01CCF10E
:10408000200E03FA0EFE10EB0E0051F10001B1F507
:10409000801FCCF1200E32D201EB045112FA0EF245
:1040A000BDE8104058BF7047401C38BF5FEA42026D
:1040B00018BF7047002814BF20F0010041F1000133
:1040C0004FEA410313F5001F38BF7047A1F1C0410B
:1040D00000F02ABB012A43EB0302ACF1200CDCF117
:1040E0001F0E32BF4FF0000E23FA0CF310EB03004B
:1040F00041EB0451B4EB115FD0D0A1EB045101F5B9
:10410000801149085FEA300001EB04510ED350F1F1
:10411000000038BF12FA0EFE08D1BDE81040C9E712
:10412000401C38BF5FEA4202CAD1C3E7BDE8104075
:104130004FEA410313F5001F38BF7047A1F1C0419A
:1041400000F0F2BA9EEA445F08D011EA5E0FBDE8C3
:10415000104004BF01F0004100207047BDE810404E
:1041600070B500F093FA00BF64FBBE3E0000E0FFB4
:10417000491058BFC1F140415B1058BFC3F14043E3
:104180008B42EFF3008070472DE9C04130B4DFF877
:10419000A0C23CEA111418BF3CEA131400F0EC80F2
:1041A00081EA03051CEA111444EAD57418BF1CEA1D
:1041B000131500F0C780A4EB05044FF0004545EA55
:1041C000C12145EAC32341EA505143EA525304F165
:1041D0007F74994204F500344FEAC0204FEAC222AE
:1041E00008BF904200F09C804FEA13650FF2401622
:1041F000765D4FEA134506FB05F7C7F1807706FBAE
:1042000007F74FEAD737A7FB03687642C8F580382F
:10421000A7FB06CE38BFA8F1010807FB08E64FF060
:10422000000EA6FB028CE6FB03CEDCF1000CCEF107
:10423000004E38BFAEF1010EA6FB0C584FF0000740
:104240004FF00005E6FB0E87A1FB08C6A0FB07CEDA
:1042500016EB0E0645F10005E1FB076515F1E04E92
:104260007EBFA4F580345FEA46066D4116F18007F3
:1042700045F100054FEA17274FEA066647EA05674A
:10428000A6F1DE46B6F1805F4FEA15251FD9384604
:1042900024F0010C05EBC471BCF1FE6F01EB0C11B5
:1042A00002D8F0BCBDE8008124425CBF01F5801E4D
:1042B0009EEAC47F02D4F0BCBDE80081244238D419
:1042C000F0BCA1F1C041BDE8004100F02DBA4FEAB9
:1042D000D22242EA43524FEAD323A7FB02864FEA97
:1042E000D02040EA415007FB03661EEA0E0F4FEA5A
:1042F000D12105FB026658BFA6EB0056B6EB00566F
:104300004FEA520E4EEAC37E18EB0E0E56EB530EDA
:10431000BDD518EB02085E417F1C55F10005B6E7DC
:104320004FF480154FF000074FF000064FF00008E3
:10433000ADE7F0BC4FF0000001F1C04101F00041D9
:10434000BDE8008111EA0C1F0CEA131500D00CE047
:1043500013EA0C1F00F025804FF00000F0BC81EA4A
:10436000030101F00041BDE80081F0BCBDE800415F
:1043700081EA030100F0D8B9F0BCBDE8004170B596
:1043800000F084F9097EFC3E00F007B881EA0301E1
:104390004FF0000001F00041704781EA030100F096
:1043A000C3B9F0BCBDE800414FF00000214970479F
:1043B000FFFDFBF9F7F5F4F2F0EEEDEBE9E8E6E4EA
:1043C000E3E1E0DEDDDBDAD8D7D5D4D3D1D0CFCD71
:1043D000CCCBCAC8C7C6C5C4C2C1C0BFBEBDBCBBAA
:1043E000BAB9B8B7B6B5B4B3B2B1B0AFAEADACABA5
:1043F000AAA9A8A8A7A6A5A4A3A3A2A1A09F9F9E7F
:104400009D9C9C9B9A999998979796959594939330
:10441000929191908F8F8E8E8D8C8C8B8B8A8989C7
:10442000888887878685858484838382828181804A
:104430000000FF070000F87F4FEA1153A3F58063E7
:10444000D3F11E03A8BFD3F1200C08DB4FF00042CC
:1044500042EAC12252EA505232FA03F0704709424E
:104460000BD4102BC4BF0020704703F5787CBCF13F
:10447000FF3F05D04FF0FF3070474FF0000070470E
:1044800070B500F003F900BF499224800020704706
:10449000F0E710F0004248BF4042B0FA80F310FA53
:1044A00003F10AD0C3F11D0303F580634FEA4150C5
:1044B00002EB035202EBD12170474FF0000070472E
:1044C00051EA030C17D41CF5801F58BFBCF5801FA0
:1044D00000F10680994218BF704708BF90427047AC
:1044E00007D711F5801F58BF13F5801F19D49942C3
:1044F0007047894270471CF5801F08D5BCF5801FA6
:10450000F7D58B4218BF704708BF824270474FF4FF
:10451000001C1CEB410F38BF1CEB430F01D28B4238
:10452000704770B500F0B2F8922449004FF0005186
:104530004FF08053FFF71CBEDFF848C170B51CEA8E
:10454000111E1EBF1CEA13159EEA0C0F95EA0C0FF4
:1045500000F06F8081EA030423EA4C134EEAD47E14
:1045600021EA4C1141F4801143F48013AE44A1FBC5
:10457000024CA0FB0365AEF17F7E361955EB0C05AE
:10458000A1FB034C4CF10003A0FB021C16EB0C0634
:10459000654153F10003094218BF46F0010613F4C8
:1045A000007F0BD14FEA03314FEA0530340341EA73
:1045B000155140EA16506FF003020AE04FEAC3219A
:1045C0004FEAC520F40241EA555140EA56506FF0D7
:1045D000020202EB2E4201EB025585EACE710AD0AF
:1045E0005FEA440C18BF24F0004450F1000041F190
:1045F000000120EAD47040F2FE7C624500D270BD1A
:10460000A84214BF4FF080444FF04044002E08BF32
:104610000024BEF1806FA8BFA1F1C041BDE8704089
:1046200080F282804FF0000001F1C04101F00041B2
:1046300070479EEA0C0F0CEA131518BF95EA0C0F91
:1046400006D04FF0000081EA030E0EF0004170BD6D
:1046500000F01CF88900013E00F007B800F009B82E
:104660004FEA430C5FEA5C5C08D081EA030100F08A
:104670005BB84FEA410C5FEA5C5CF6D14FF000009A
:10468000014970470000FF070000F87F0EF1020E9D
:104690002EF0030E5EF8046B364205D4012A43EB7C
:1046A000030515F5001F12D8012841EB010C1CF57C
:1046B000001F0CD80ED14FEAD17C15F5001F0CEB72
:1046C0004C0C0CF1020C08BF4CEBD37C04E04FF017
:1046D000080C01E04FEAD37C0CEB4C0526FA05F6FA
:1046E00006F00706B6F1040C06D20EEB860CBDE808
:1046F00070404CF0010C6047DFE80CF0090B02023F
:104700004FF000414FF00000A1F5002170BD1946A7
:104710001046012851EB010418BFD4F5001484BFE2
:10472000002001F0004170BD0808A0F500114FEA1B
:104730003101704753EA010C17D41CF5801F58BF94
:10474000BCF5801F00F106808B4218BF704708BF80
:104750008242704707D713F5801F58BF11F5801F9D
:1047600019D48B4270479B4270471CF5801F08D5B7
:10477000BCF5801FF7D5994218BF704708BF90421B
:1047800070474FF4001C1CEB430F38BF1CEB410F6C
:1047900001D2994270470FB40CBC03BCFFF7C1BEF5
:1047A00091EA030F10B581F000413FF541AC83F071
:1047B000004300F009B8000010B591EA030F48BFAC
:1047C00083F000433FF534AC841A71EB030C07D23D
:1047D00012198CF0004C43EB0C03001B61EB0C0135
:1047E000DFF8A4E14FEA1154A4EB135C1EEA430F77
:1047F00018BF9EEA445F00F0B08023EA6E03524285
:1048000021EA0451C3EB6E0338BF5B1EDCF1200EBE
:1048100025D322FA0CFE10EB0E0043FA0CFE41EBFE
:104820000E01CCF1200E03FA0EFE10EB0E0051F13A
:104830000001CCF1200E29D412FA0EF201EB045142
:10484000BDE8104058BF7047401C1CBFB2F1004F7C
:10485000704700280CBF491C20F00100704712EB84
:10486000020E43EB030218BF4FF0010E4EEA420264
:10487000ACF1200CDCF11E0E54D943FA0CFE10EB07
:104880000E0051F1FF31CCF11E0ED5D50EF1010E07
:1048900012FA0EFE404141EB010101EB445C5FEA7C
:1048A0005C5C10D910EBDE7001EB045138BFBEF137
:1048B000004FBDE8104018BF704700280CBF491CCE
:1048C00020F00100704730D24FEAD42C11F50011CE
:1048D00024F400641BD0B1FA81F20B3AA41AA41E8E
:1048E000D2F12003914030FA03F31943904001EBD9
:1048F000CC71002C01EB0451BDE81040A8BF7047FB
:1049000001F1C0414FF0000001F000417047B0FAE2
:1049100080F310FA03F100D110BDE41A173C4805EA
:10492000C90AE4E701EB045110BD491001EB045141
:10493000BDE810404FEA300002E04FF00001704740
:104940004A0008BF0042F8D0B2F5001F28BF7047E8
:1049500001F000414FF0000070479EEA445F07D02D
:1049600011EA5E0FBDE8104004BF0021002070472F
:10497000BDE8104070B5FFF789FE00BF40DFF63E8E
:1049800083F00041104670470000E0FF43004FEA0B
:10499000D30C4FEA3C0C43401FBF40070CF1605161
:1049A00013F0FE4F70471CF0006F03D100200CF095
:1049B000004170470CF0004343EA507010B540EAE4
:1049C000CC0000F00EF800BF000000924FEA00019A
:1049D000FFF7AABE4FF000414FF00000A1F5002103
:1049E00070470EF1020E2EF0030E5EF8044B2442C7
:1049F00004D44FEA4102B2F17F4F11D84FEA40038D
:104A0000B3F17F4F0CD80ED14FEAD07CB2F17F4F7B
:104A10000CEB4C0C0CF1020C08BF4CEBD17C04E00D
:104A20004FF0080C01E04FEAD17C0CEB4C0324FA68
:104A300003F404F00704B4F1040C06D20EEB840C6A
:104A4000BDE810404CF0010C6047DFE80CF00708AF
:104A500002024FF00040A0F5800010BD0846420061
:104A600018BFD2F1807288BF00F0004010BD4FF037
:104A70004070E1EE100A7047FF2141EAD050C005B6
:104A80007047000000000000000001020304060758
:104A900008090000000001020304000000000000FB
:104AA0000000002F000000000700070000147F1422
:104AB0007F1400242A7F2A12006264081323003620
:104AC0004955225000000503000000001C2241004F
:104AD000000041221C000014083E08140008083E93
:104AE0000808000000A0600000080808080800008E
:104AF00060600000002010080402003E5149453E5D
:104B00000000427F4000004261514946002141457A
:104B10004B31001814127F10002745454539003CE1
:104B20004A494930000171090503003649494936AF
:104B300000064949291E000036360000000056369E
:104B40000000000814224100001414141414000082
:104B50004122140800020151090600324959513E10
:104B6000007C1211127C007F49494936003E4141C8
:104B70004122007F4141221C007F49494941007F79
:104B800009090901003E4149497A007F0808087F68
:104B90000000417F4100002040413F01007F081498
:104BA0002241007F40404040007F020C027F007F96
:104BB0000408107F003E4141413E007F090909067B
:104BC000003E4151215E007F0919294600464949AE
:104BD00049310001017F0101003F4040403F001F7B
:104BE0002040201F003F4038403F006314081463FA
:104BF00000070870080700615149454300007F41E4
:104C0000410000552A552A55000041417F0000040B
:104C10000201020400404040404000000102040044
:104C2000002054545478007F4844443800384444A9
:104C3000442000384444487F003854545418000835
:104C40007E0901020018A4A4A47C007F0804047853
:104C50000000447D4000004080847D00007F1028DB
:104C600044000000417F4000007C04180478007C70
:104C70000804047800384444443800FC24242418F0
:104C80000018242418FC007C08040408004854542C
:104C9000542000043F444020003C4040207C001C45
:104CA0002040201C003C4030403C00442810284458
:104CB000001CA0A0A07C004464544C4414141414A0
:104CC00014140000000000000000000000000000BC
:104CD000FC000000000002000000000C020C0200BA
:104CE00000000000000090D0BCD0BC900003000386
:104CF00000001824FE448C0003020702010018245F
:104D0000D8B04C80000300010201C038E438E00054
:104D1000010202010202080600000000000000007B
:104D20000000000000F8040200000001020400027C
:104D300004F800000004020100009060F860900098
:104D40000000010000002020FC20200000000100E5
:104D50000000000000000000080600000000202005
:104D600020202000000000000000000000000000E3
:104D70000002000000000080601C0200040300002C
:104D80000000F8040404F800010202020100000817
:104D9000FC000000000203020000188444241800F4
:104DA00003020202020008042424D80001020202C5
:104DB000010040B088FC80000000000302003C2499
:104DC0002424C400010202020100F824242CC000A3
:104DD0000102020201000C04E41C040000000300B4
:104DE0000000D8242424D800010202020100384423
:104DF0004444F8000003020201000000100000001B
:104E0000000002000000000020000000000006007A
:104E10000000002050880402000000000102909071
:104E200090909000000000000000000204885020D4
:104E30000002010000001804C42418000000020051
:104E40000000F804E494F80001020202020000E00D
:104E50009CF0800002030000030204FC2424D8001C
:104E6000020302020100F80404040C000102020221
:104E7000010004FC0404F80002030202010004FC27
:104E800024740C0002030202030004FC24740C00CE
:104E9000020302000000F0080444CC4000010202BA
:104EA000010004FC2020FC040203000003020404AF
:104EB000FC040400020203020200000404FC0404D7
:104EC00006040403000004FC24D00C0402030200C6
:104ED000030204FC04000000020302020203FC3C83
:104EE000C03CFC0003000300030004FC30C4FC04CD
:104EF000020302000300F8040404F80001020202A5
:104F0000010004FC24241800020302000000F884BD
:104F10008404F80001020207050004FC24649800E0
:104F2000020302000302182424448C00030202023C
:104F300001000C04FC040C0000020302000004FC4D
:104F40000000FC04000102020100047C80E01C045B
:104F50000000030000001CE03CE01C000003000314
:104F60000000049C609C0400020300030200041C77
:104F7000E01C04000002030200000C84641C040016
:104F80000203020203000000FE0202000000070408
:104F90000400000E30C0000000000001020000020A
:104FA00002FE0000000404070000000402040000E8
:104FB00000000000000000000000000008080808D1
:104FC000080800000200000000000000000000408F
:104FD000A0A0C00000010202030204FC2020C000C7
:104FE00000030202010000C0202060000001020254
:104FF000020000C02024FC0000010202030200C0E5
:10500000A0A0C0000001020202000020F824240435
:105010000002030202000040A0A0602000070A0A6C
:105020000A0404FC2020C000020302000302002046
:10503000E4000000000203020000000020E4000081
:1050400008080807000004FC80E02020020302009A
:1050500003020404FC000000020203020200E0203C
:10506000E020C00003000300030020E02020C00077
:1050700002030200030200C02020C000000102025F
:10508000010020E02020C000080F0A02010000C03B
:105090002020E0000001020A0F0820E0402020004C
:1050A0000203020000000060A0A020000002020233
:1050B00003000020F820000000000102020020E0B0
:1050C0000020E00000010202030220E020806020B6
:1050D0000000030100006080E08060000003000326
:1050E000000020608060200002030003020020E036
:1050F000208060200808070100000020A060200038
:10510000000203020200000020DE0200000000078F
:105110000400000000FF00000000000F000000027B
:10512000DE20000000040700000002010204040267
:10513000000000000000000000000000000000006F
:10514000000000000000000000F800000000000067
:1051500000333000000000100C06100C06000000A8
:1051600000000000000040C07840C0784000043FCC
:1051700004043F040400007088FC0830000000189C
:1051800020FF211E0000F008F000E01800000021C0
:105190001C031E211E0000F00888700000001E2164
:1051A00023241927211010160E0000000000000013
:1051B000000000000000000000E0180402000000F1
:1051C00000071820400000020418E0000000004022
:1051D000201807000000404080F08040400002029C
:1051E000010F01020200000000F0000000000101B8
:1051F000011F01010100000000000000000080B05C
:10520000700000000000000000000000000000012D
:105210000101010101010000000000000000003058
:1052200030000000000000000000806018040060F2
:1052300018060100000000E010080810E000000F50
:10524000102020100F00001010F8000000000020B7
:10525000203F2020000000700808088870000030FF
:1052600028242221300000300888884830000018A7
:10527000202020110E000000C02010F800000007C0
:105280000424243F240000F8088888080800001936
:10529000212020110E0000E0108888180000000F67
:1052A000112020110E0000380808C838080000003E
:1052B000003F000000000070880808887000001C93
:1052C000222121221C0000E010080810E00000004C
:1052D000312222110F00000000C0C00000000000B9
:1052E00000303000000000000080000000000000DE
:1052F00080600000000000008040201008000001D5
:105300000204081020004040404040404000040497
:105310000404040404000008102040800000002061
:10532000100804020100007048080808F00000009E
:10533000003036010000C030C828E810E00007182F
:10534000272423140B000000C038E0000000203C9C
:1053500023020227382008F8888888700000203F40
:10536000202020110E00C030080808083800071857
:1053700020202010080008F808080810E000203F4E
:10538000202020100F0008F88888E8081000203F2F
:1053900020202320180008F88888E8081000203F03
:1053A000200003000000C03008080838000007187B
:1053B0002020221E020008F808000008F808203FFC
:1053C000210101213F20000808F808080000002002
:1053D000203F2020000000000808F8080800C080D6
:1053E00080807F00000008F888C028180800203F4F
:1053F00020012638200008F8080000000000203FA7
:1054000020202020300008F8F800F8F80800203F9D
:10541000003F003F200008F830C00008F808203F97
:10542000200007183F00E01008080810E0000F10E7
:10543000202020100F0008F808080808F000203F7E
:10544000210101010000E01008080810E0000F1819
:10545000242438504F0008F8888888887000203F3E
:105460002000030C3020007088080808380000383D
:10547000202121221C00180808F808081800000044
:10548000203F2000000008F808000008F808001F6E
:10549000202020201F000878880000C8380800005D
:1054A00007380E010000F80800F80008F800033C77
:1054B0000700073C0300081868808068180820303F
:1054C0002C03032C30200838C800C838080000001E
:1054D000203F2000000010080808C83808002038C5
:1054E000262120201800000000FE02020200000019
:1054F000007F40404000000C30C000000000000071
:1055000000010638C00000020202FE000000004058
:1055100040407F000000000004020202040000007E
:10552000000000000000000000000000000080807B
:105530008080808080800002020400000000000063
:105540000000000000000000808080800000001942
:10555000242222223F2008F8008080000000003F23
:10556000112020110E000000008080800000000E3D
:10557000112020201100000000808088F800000E1B
:10558000112020103F200000808080800000001F3C
:10559000222222221300008080F0888888180020B0
:1055A000203F202000000000808080808000006B71
:1055B00094949493600008F8008080800000203F5D
:1055C000210000203F20008098980000000000206B
:1055D000203F20200000000000809898000000C0BC
:1055E0008080807F000008F8000080808000203FDD
:1055F00024022D302000000808F8000000000020E0
:10560000203F202000008080808080808000203F1C
:1056100020003F20003F8080008080800000203FED
:10562000210000203F200000808080800000001FBB
:10563000202020201F00808000808000000080FF4C
:10564000A12020110E000000008080808000000E4C
:10565000112020A0FF80808080008080800020209A
:105660003F21200001000000808080808000003306
:10567000242424241900008080E0808000000000A1
:10568000001F202000008080000000808000001F9C
:10569000202020103F20808080000080808000013A
:1056A0000E300806010080800080008080800F306E
:1056B0000C030C300F0000808000808080000020F0
:1056C000312E0E312000808080000080808080811B
:1056D0008E7018060100008080808080800000218C
:1056E000302C2221300000000000807C02020000EB
:1056F0000000003F404000000000FF0000000000EC
:105700000000FF0000000002027C8000000000405A
:10571000403F0000000000060101020204040000F6
:105720000000000000000000000000000000000079
:105730000000000000000000000000000000000069
:10574000000000000000000000000000000000F069
:10575000F0F0000000000000000000017F010000E8
:10576000000000000000001C1C1C000000000000E5
:105770008060301C8C60301C0C00000000000000B9
:105780000000000000000000000000000000000019
:105790000000000000E00000000000E000000086C3
:1057A000E69F86868686E69F860000011F0101012E
:1057B00001011F010100000080C06020F820E0C04E
:1057C0000000000003070C18FF70E18100000000DA
:1057D000070F10107F100F0700008060206080000E
:1057E0000000E02000000F3020309F70DC371030C8
:1057F000C0000000100E030007181018070000007A
:10580000C02020E0C0000000000080E01F38E887D2
:1058100003C43C040000070F1810100B070D1010F4
:10582000080000808C4C38000000000000000000E0
:105830000000000000000000000000000000000068
:1058400000000000000000000000000080E03008C0
:1058500004000000000000FEFF0100000000000046
:1058600000000000030F1820400000040830E08012
:105870000000000000000000000001FFFE0000002A
:105880000000004020180F0300000000000000008E
:1058900000000000C00000000000004266663C18E6
:1058A000FF183C6666420000000000000300000094
:1058B0000000000000000000800000000000001058
:1058C00010101010FF101010101000000000000049
:1058D00003000000000000000000000000000000C5
:1058E0000000000000000000000000000000008038
:1058F0008C4C380000000000000000000000000098
:105900000000000000000010101010101010101007
:105910001000000000000000000000000000000077
:105920000000000000000000000000000000000077
:1059300000000000000000001C1C1C000000000013
:1059400000000000000000000000E0380C00000033
:10595000000080701C03000000000060380E010091
:10596000000000000000000080C060202060C080B7
:10597000000000FEFF010000000001FFFE0000012A
:10598000070E181010180E0701000000808080C05C
:10599000E000000000000000000000FFFF00000029
:1059A000000000001010101F1F10101000000080D9
:1059B000402020202060C0800000000303008040C1
:1059C00020381F070000001C1A1918181818181F73
:1059D00000000080C020202060C080000000000384
:1059E00003001010182FE780000000070F101010A0
:1059F00010180F070000000000000000C0E0F000D9
:105A0000000000C0B088868180FFFF808000000019
:105A100000000010101F1F1010000000E060606008
:105A200060606060000000003F1008080818F0E0A7
:105A3000000000070B101010101C0F0300000000E6
:105A400080C040202020E0C0000000FCFF211008A2
:105A5000080818F0E0000001070C18101010080FDB
:105A600003000000C0E06060606060E06000000073
:105A700003000000E0180700000000000000001F05
:105A80001F00000000000080C0602020202060C0B7
:105A900080000087EF2C1818303068CF8300000793
:105AA0000F0810101010180F07000000C0C02020B1
:105AB0002020C0800000001F3F604040402010FFB9
:105AC000FE0000000C1C101010080F030000000066
:105AD0000000000000000000000000000000000EB8
